:0200000080007E
:02000100850078
:020002008A0072
:020003008F006C
:02000400BC0737
:02000500806019
:02000600E30312
:02000700C00037
:02000800C00135
:02000900700085
:02000A00AF2025
:02000B00E30907
:02000C008F0063
:02000D00800071
:02000E00B0023E
:02000F00B50337
:02001000CC2002
:02001100CD21FF
:02001200CC0020
:02001300CD011D
:0200140070007A
:020015008F005A
:02001600AF40F9
:02001700E30EF6
:020018008F0057
:02001900800065
:02001A00B02014
:02001B00B5210D
:02001C00BA0622
:02001D00CE22F1
:02001E00CC0014
:02001F00CD0111
:0200200080005E
:020021008F004E
:02002200BC0719
:020023008080DB
:02002400E30DEA
:02002500700069
:020026008F0049
:02002700AF60C8
:02002800E308EB
:020029008F0046
:02002A00800054
:02002B00B0041F
:02002C00B50518
:02002D00CC23E2
:02002E00CD24DF
:02002F00CC0003
:02003000CD0100
:0200310070005D
:0200320080004C
:02003300850046
:020034008A0040
:020035008F003A
:02003600BC0606
:02003700AF0A0E
:02003800E30ED5
:02003900800045
:02003A008F0035
:02003B00B020F3
:02003C00B521EC
:02003D00BA23E4
:02003E00BF24DD
:02003F0022009D
:02004000674017
:020041008F002E
:02004200CC20D0
:02004300CD21CD
:02004400CC00EE
:02004500CD01EB
:02004600D010D8
:020047008F0028
:02004800AF0BFC
:02004900E30EC4
:02004A00800034
:02004B008F0024
:02004C00B020E2
:02004D00B521DB
:02004E00BA23D3
:02004F00BF24CC
:0200500032007C
:02005100574016
:020052008F001D
:02005300CC20BF
:02005400CD21BC
:02005500CC00DD
:02005600CD01DA
:02005700D010C7
:020058008F0017
:02005900AF0CEA
:02005A00E30EB3
:02005B00800023
:02005C008F0013
:02005D00B020D1
:02005E00B521CA
:02005F00BA23C2
:02006000BF24BB
:0200610002009B
:02006200074055
:020063008F000C
:02006400CC20AE
:02006500CD21AB
:02006600CC00CC
:02006700CD01C9
:02006800D010B6
:020069008F0006
:02006A00AF0DD8
:02006B00E30EA2
:02006C00800012
:02006D008F0002
:02006E00B020C0
:02006F00B521B9
:02007000BA23B1
:02007100BF24AA
:0200720012007A
:02007300174034
:020074008F00FB
:02007500CC209D
:02007600CD219A
:02007700CC00BB
:02007800CD01B8
:02007900D01C99
:02007A008F00F5
:02007B00AF0EC6
:02007C00E31986
:02007D00800001
:02007E008500FB
:02007F008A00F5
:020080008F00EF
:02008100B020AD
:02008200B521A6
:02008300BA239E
:02008400BF2497
:02008500E70290
:02008600F80878
:02008700D501A1
:02008800FD0673
:020089008F00E6
:02008A00CF2085
:02008B00CF2183
:02008C00CF00A3
:02008D00CF01A1
:02008E00D50794
:02008F008F00E0
:020090008A00E4
:02009100AA01C2
:02009200CE207E
:02009300CF217B
:02009400CE009C
:02009500CF0199
:020096008000E8
:020097008500E2
:020098008A00DC
:020099008F00D6
:02009A00BC07A1
:02009B00808063
:02009C00E3F986
:02009D007000F1
:02009E00FFFF62
:02009F00FFFF61
:0200A000FFFF60
:0200A100FFFF5F
:0200A200FFFF5E
:0200A300FFFF5D
:0200A400FFFF5C
:0200A500FFFF5B
:0200A600FFFF5A
:0200A700FFFF59
:0200A800FFFF58
:0200A900FFFF57
:0200AA00FFFF56
:0200AB00FFFF55
:0200AC00FFFF54
:0200AD00FFFF53
:0200AE00FFFF52
:0200AF00FFFF51
:0200B000FFFF50
:0200B100FFFF4F
:0200B200FFFF4E
:0200B300FFFF4D
:0200B400FFFF4C
:0200B500FFFF4B
:0200B600FFFF4A
:0200B700FFFF49
:0200B800FFFF48
:0200B900FFFF47
:0200BA00FFFF46
:0200BB00FFFF45
:0200BC00FFFF44
:0200BD00FFFF43
:0200BE00FFFF42
:0200BF00FFFF41
:0200C000FFFF40
:0200C100FFFF3F
:0200C200FFFF3E
:0200C300FFFF3D
:0200C400FFFF3C
:0200C500FFFF3B
:0200C600FFFF3A
:0200C700FFFF39
:0200C800FFFF38
:0200C900FFFF37
:0200CA00FFFF36
:0200CB00FFFF35
:0200CC00FFFF34
:0200CD00FFFF33
:0200CE00FFFF32
:0200CF00FFFF31
:0200D000FFFF30
:0200D100FFFF2F
:0200D200FFFF2E
:0200D300FFFF2D
:0200D400FFFF2C
:0200D500FFFF2B
:0200D600FFFF2A
:0200D700FFFF29
:0200D800FFFF28
:0200D900FFFF27
:0200DA00FFFF26
:0200DB00FFFF25
:0200DC00FFFF24
:0200DD00FFFF23
:0200DE00FFFF22
:0200DF00FFFF21
:0200E000FFFF20
:0200E100FFFF1F
:0200E200FFFF1E
:0200E300FFFF1D
:0200E400FFFF1C
:0200E500FFFF1B
:0200E600FFFF1A
:0200E700FFFF19
:0200E800FFFF18
:0200E900FFFF17
:0200EA00FFFF16
:0200EB00FFFF15
:0200EC00FFFF14
:0200ED00FFFF13
:0200EE00FFFF12
:0200EF00FFFF11
:0200F000FFFF10
:0200F100FFFF0F
:0200F200FFFF0E
:0200F300FFFF0D
:0200F400FFFF0C
:0200F500FFFF0B
:0200F600FFFF0A
:0200F700FFFF09
:0200F800FFFF08
:0200F900FFFF07
:0200FA00FFFF06
:0200FB00FFFF05
:0200FC00FFFF04
:0200FD00FFFF03
:0200FE00FFFF02
:0200FF00FFFF01
:00000001FF
